{
  "contractName": "BallotCollection",
  "abi": [
    {
      "constant": true,
      "inputs": [
        {
          "internalType": "uint256",
          "name": "",
          "type": "uint256"
        }
      ],
      "name": "ballots",
      "outputs": [
        {
          "internalType": "address",
          "name": "",
          "type": "address"
        }
      ],
      "payable": false,
      "stateMutability": "view",
      "type": "function"
    },
    {
      "constant": false,
      "inputs": [
        {
          "internalType": "string",
          "name": "name",
          "type": "string"
        },
        {
          "internalType": "bytes32[]",
          "name": "_proposals",
          "type": "bytes32[]"
        }
      ],
      "name": "addBallot",
      "outputs": [
        {
          "internalType": "address",
          "name": "address_",
          "type": "address"
        }
      ],
      "payable": false,
      "stateMutability": "nonpayable",
      "type": "function"
    },
    {
      "constant": true,
      "inputs": [],
      "name": "getAllBallots",
      "outputs": [
        {
          "internalType": "address[]",
          "name": "ballots_",
          "type": "address[]"
        }
      ],
      "payable": false,
      "stateMutability": "view",
      "type": "function"
    }
  ],
  "bytecode": "0x608060405234801561001057600080fd5b5061146a806100206000396000f3fe608060405234801561001057600080fd5b50600436106100415760003560e01c80630b8710e4146100465780635c632b38146100a55780638d748bdb14610113575b600080fd5b61004e6102a2565b6040518080602001828103825283818151815260200191508051906020019060200280838360005b83811015610091578082015181840152602081019050610076565b505050509050019250505060405180910390f35b6100d1600480360360208110156100bb57600080fd5b8101908080359060200190929190505050610330565b604051808273ffffffffffffffffffffffffffffffffffffffff1673ffffffffffffffffffffffffffffffffffffffff16815260200191505060405180910390f35b6102606004803603604081101561012957600080fd5b810190808035906020019064010000000081111561014657600080fd5b82018360208201111561015857600080fd5b8035906020019184600183028401116401000000008311171561017a57600080fd5b91908080601f016020809104026020016040519081016040528093929190818152602001838380828437600081840152601f19601f820116905080830192505050505050509192919290803590602001906401000000008111156101dd57600080fd5b8201836020820111156101ef57600080fd5b8035906020019184602083028401116401000000008311171561021157600080fd5b919080806020026020016040519081016040528093929190818152602001838360200280828437600081840152601f19601f82011690508083019250505050505050919291929050505061036c565b604051808273ffffffffffffffffffffffffffffffffffffffff1673ffffffffffffffffffffffffffffffffffffffff16815260200191505060405180910390f35b6060600080548060200260200160405190810160405280929190818152602001828054801561032657602002820191906000526020600020905b8160009054906101000a900473ffffffffffffffffffffffffffffffffffffffff1673ffffffffffffffffffffffffffffffffffffffff16815260200190600101908083116102dc575b5050505050905090565b6000818154811061033d57fe5b906000526020600020016000915054906101000a900473ffffffffffffffffffffffffffffffffffffffff1681565b600080838360405161037d9061055a565b808060200180602001838103835285818151815260200191508051906020019080838360005b838110156103be5780820151818401526020810190506103a3565b50505050905090810190601f1680156103eb5780820380516001836020036101000a031916815260200191505b50838103825284818151815260200191508051906020019060200280838360005b8381101561042757808201518184015260208101905061040c565b50505050905001945050505050604051809103906000f080158015610450573d6000803e3d6000fd5b5090508073ffffffffffffffffffffffffffffffffffffffff1663a7b49529336040518263ffffffff1660e01b8152600401808273ffffffffffffffffffffffffffffffffffffffff1673ffffffffffffffffffffffffffffffffffffffff168152602001915050600060405180830381600087803b1580156104d257600080fd5b505af11580156104e6573d6000803e3d6000fd5b5050505080915060008290806001815401808255809150509060018203906000526020600020016000909192909190916101000a81548173ffffffffffffffffffffffffffffffffffffffff021916908373ffffffffffffffffffffffffffffffffffffffff160217905550505092915050565b610ece806105688339019056fe60806040523480156200001157600080fd5b5060405162000ece38038062000ece833981810160405260408110156200003757600080fd5b81019080805160405193929190846401000000008211156200005857600080fd5b838201915060208201858111156200006f57600080fd5b82518660018202830111640100000000821117156200008d57600080fd5b8083526020830192505050908051906020019080838360005b83811015620000c3578082015181840152602081019050620000a6565b50505050905090810190601f168015620000f15780820380516001836020036101000a031916815260200191505b50604052602001805160405193929190846401000000008211156200011557600080fd5b838201915060208201858111156200012c57600080fd5b82518660208202830111640100000000821117156200014a57600080fd5b8083526020830192505050908051906020019060200280838360005b838110156200018357808201518184015260208101905062000166565b50505050905001604052505050336001806101000a81548173ffffffffffffffffffffffffffffffffffffffff021916908373ffffffffffffffffffffffffffffffffffffffff1602179055506000600160006101000a81548160ff021916908315150217905550816000908051906020019062000203929190620002b2565b5080600490805190602001906200021c92919062000339565b5060008090505b8151811015620002a957600360405180604001604052808484815181106200024757fe5b602002602001015181526020016000815250908060018154018082558091505090600182039060005260206000209060020201600090919290919091506000820151816000015560208201518160010155505050808060010191505062000223565b505050620003db565b828054600181600116156101000203166002900490600052602060002090601f016020900481019282601f10620002f557805160ff191683800117855562000326565b8280016001018555821562000326579182015b828111156200032557825182559160200191906001019062000308565b5b5090506200033591906200038b565b5090565b82805482825590600052602060002090810192821562000378579160200282015b82811115620003775782518255916020019190600101906200035a565b5b509050620003879190620003b3565b5090565b620003b091905b80821115620003ac57600081600090555060010162000392565b5090565b90565b620003d891905b80821115620003d4576000816000905550600101620003ba565b5090565b90565b610ae380620003eb6000396000f3fe608060405234801561001057600080fd5b50600436106100cf5760003560e01c8063609ff1bd1161008c578063a7b4952911610066578063a7b49529146103e9578063a97b8b4d1461042d578063c8e4ef7f14610437578063e2ba53f014610479576100cf565b8063609ff1bd1461034a5780638a9cbb6c14610368578063a3ec138d14610386576100cf565b80630121b93f146100d4578063013cf08b1461010257806306fdde031461014b5780632e4176cf146101ce578063370158ea14610218578063597e1fb514610328575b600080fd5b610100600480360360208110156100ea57600080fd5b8101908080359060200190929190505050610497565b005b61012e6004803603602081101561011857600080fd5b8101908080359060200190929190505050610639565b604051808381526020018281526020019250505060405180910390f35b61015361066a565b6040518080602001828103825283818151815260200191508051906020019080838360005b83811015610193578082015181840152602081019050610178565b50505050905090810190601f1680156101c05780820380516001836020036101000a031916815260200191505b509250505060405180910390f35b6101d6610708565b604051808273ffffffffffffffffffffffffffffffffffffffff1673ffffffffffffffffffffffffffffffffffffffff16815260200191505060405180910390f35b61022061072d565b60405180806020018673ffffffffffffffffffffffffffffffffffffffff1673ffffffffffffffffffffffffffffffffffffffff1681526020018515151515815260200184815260200180602001838103835288818151815260200191508051906020019080838360005b838110156102a657808201518184015260208101905061028b565b50505050905090810190601f1680156102d35780820380516001836020036101000a031916815260200191505b50838103825284818151815260200191508051906020019060200280838360005b8381101561030f5780820151818401526020810190506102f4565b5050505090500197505050505050505060405180910390f35b61033061086d565b604051808215151515815260200191505060405180910390f35b610352610880565b6040518082815260200191505060405180910390f35b6103706108f7565b6040518082815260200191505060405180910390f35b6103c86004803603602081101561039c57600080fd5b81019080803573ffffffffffffffffffffffffffffffffffffffff169060200190929190505050610904565b60405180831515151581526020018281526020019250505060405180910390f35b61042b600480360360208110156103ff57600080fd5b81019080803573ffffffffffffffffffffffffffffffffffffffff169060200190929190505050610935565b005b610435610978565b005b6104636004803603602081101561044d57600080fd5b8101908080359060200190929190505050610a39565b6040518082815260200191505060405180910390f35b610481610a5a565b6040518082815260200191505060405180910390f35b6000600260003373ffffffffffffffffffffffffffffffffffffffff1673ffffffffffffffffffffffffffffffffffffffff1681526020019081526020016000209050600160009054906101000a900460ff161561055d576040517f08c379a000000000000000000000000000000000000000000000000000000000815260040180806020018281038252601d8152602001807f7468652062616c6c6f7420697320616c726561647920636c6f7365642e00000081525060200191505060405180910390fd5b8060000160009054906101000a900460ff16156105e2576040517f08c379a000000000000000000000000000000000000000000000000000000000815260040180806020018281038252600e8152602001807f416c726561647920766f7465642e00000000000000000000000000000000000081525060200191505060405180910390fd5b60018160000160006101000a81548160ff02191690831515021790555081816001018190555060016003838154811061061757fe5b9060005260206000209060020201600101600082825401925050819055505050565b6003818154811061064657fe5b90600052602060002090600202016000915090508060000154908060010154905082565b60008054600181600116156101000203166002900480601f0160208091040260200160405190810160405280929190818152602001828054600181600116156101000203166002900480156107005780601f106106d557610100808354040283529160200191610700565b820191906000526020600020905b8154815290600101906020018083116106e357829003601f168201915b505050505081565b6001809054906101000a900473ffffffffffffffffffffffffffffffffffffffff1681565b60606000806000606060008054600181600116156101000203166002900480601f0160208091040260200160405190810160405280929190818152602001828054600181600116156101000203166002900480156107cc5780601f106107a1576101008083540402835291602001916107cc565b820191906000526020600020905b8154815290600101906020018083116107af57829003601f168201915b505050505094506001809054906101000a900473ffffffffffffffffffffffffffffffffffffffff169350600160009054906101000a900460ff169250610811610a5a565b9150600480548060200260200160405190810160405280929190818152602001828054801561085f57602002820191906000526020600020905b81548152602001906001019080831161084b575b505050505090509091929394565b600160009054906101000a900460ff1681565b6000806000905060008090505b6003805490508110156108f25781600382815481106108a857fe5b90600052602060002090600202016001015411156108e557600381815481106108cd57fe5b90600052602060002090600202016001015491508092505b808060010191505061088d565b505090565b6000600380549050905090565b60026020528060005260406000206000915090508060000160009054906101000a900460ff16908060010154905082565b806001806101000a81548173ffffffffffffffffffffffffffffffffffffffff021916908373ffffffffffffffffffffffffffffffffffffffff16021790555050565b3373ffffffffffffffffffffffffffffffffffffffff166001809054906101000a900473ffffffffffffffffffffffffffffffffffffffff1673ffffffffffffffffffffffffffffffffffffffff1614610a1d576040517f08c379a0000000000000000000000000000000000000000000000000000000008152600401808060200182810382526027815260200180610a886027913960400191505060405180910390fd5b60018060006101000a81548160ff021916908315150217905550565b60048181548110610a4657fe5b906000526020600020016000915090505481565b60006003610a66610880565b81548110610a7057fe5b90600052602060002090600202016000015490509056fe6f6e6c79207468652063686169726d616e2063616e20636c6f7365207468652062616c6c6f742ea265627a7a723158205770f1a7206c5f8ec4d1e4982adcffe0c474bdc4199940aaed8a44c5ad4f206c64736f6c63430005100032a265627a7a72315820fd72404b30b3dfdc55bb91ba1431bb035a2a328970b564144ceaa4a24706a53564736f6c63430005100032",
  "source": "// SPDX-License-Identifier: GPL-3.0\r\n\r\npragma solidity >=0.5.0;\r\n\r\nimport \"contracts/Ballot.sol\";\r\n\r\ncontract BallotCollection {\r\n    address[] public ballots;\r\n\r\n    function addBallot(string memory name, bytes32[] memory _proposals) public returns(address address_) {\r\n        Ballot ballot = new Ballot(name, _proposals);\r\n        ballot.setChairman(msg.sender);\r\n        address_ = address(ballot);\r\n        ballots.push(address_);\r\n    }\r\n\r\n    function getAllBallots() public view returns (address[] memory ballots_) {\r\n        ballots_ = ballots;\r\n    }\r\n}",
  "sourcePath": "F:/Dvoter/contracts/BallotCollection.sol",
  "compiler": {
    "name": "solc",
    "version": "0.5.16+commit.9c3226ce.Emscripten.clang"
  },
  "schemaVersion": "3.3.4",
  "updatedAt": "2021-03-26T10:24:05.986Z",
  "networkType": "ethereum",
  "devdoc": {
    "methods": {}
  },
  "userdoc": {
    "methods": {}
  }
}