{
  "contractName": "Ballot",
  "abi": [
    {
      "inputs": [
        {
          "internalType": "string",
          "name": "_name",
          "type": "string"
        },
        {
          "internalType": "bytes32[]",
          "name": "proposalNames",
          "type": "bytes32[]"
        }
      ],
      "payable": false,
      "stateMutability": "nonpayable",
      "type": "constructor"
    },
    {
      "constant": true,
      "inputs": [],
      "name": "chairperson",
      "outputs": [
        {
          "internalType": "address",
          "name": "",
          "type": "address"
        }
      ],
      "payable": false,
      "stateMutability": "view",
      "type": "function"
    },
    {
      "constant": true,
      "inputs": [],
      "name": "closed",
      "outputs": [
        {
          "internalType": "bool",
          "name": "",
          "type": "bool"
        }
      ],
      "payable": false,
      "stateMutability": "view",
      "type": "function"
    },
    {
      "constant": true,
      "inputs": [],
      "name": "name",
      "outputs": [
        {
          "internalType": "string",
          "name": "",
          "type": "string"
        }
      ],
      "payable": false,
      "stateMutability": "view",
      "type": "function"
    },
    {
      "constant": true,
      "inputs": [
        {
          "internalType": "uint256",
          "name": "",
          "type": "uint256"
        }
      ],
      "name": "proposals",
      "outputs": [
        {
          "internalType": "bytes32",
          "name": "name",
          "type": "bytes32"
        },
        {
          "internalType": "uint256",
          "name": "voteCount",
          "type": "uint256"
        }
      ],
      "payable": false,
      "stateMutability": "view",
      "type": "function"
    },
    {
      "constant": true,
      "inputs": [
        {
          "internalType": "uint256",
          "name": "",
          "type": "uint256"
        }
      ],
      "name": "rawProposals",
      "outputs": [
        {
          "internalType": "bytes32",
          "name": "",
          "type": "bytes32"
        }
      ],
      "payable": false,
      "stateMutability": "view",
      "type": "function"
    },
    {
      "constant": true,
      "inputs": [
        {
          "internalType": "address",
          "name": "",
          "type": "address"
        }
      ],
      "name": "voters",
      "outputs": [
        {
          "internalType": "bool",
          "name": "voted",
          "type": "bool"
        },
        {
          "internalType": "uint256",
          "name": "vote",
          "type": "uint256"
        }
      ],
      "payable": false,
      "stateMutability": "view",
      "type": "function"
    },
    {
      "constant": false,
      "inputs": [
        {
          "internalType": "uint256",
          "name": "proposal",
          "type": "uint256"
        }
      ],
      "name": "vote",
      "outputs": [],
      "payable": false,
      "stateMutability": "nonpayable",
      "type": "function"
    },
    {
      "constant": true,
      "inputs": [],
      "name": "winningProposal",
      "outputs": [
        {
          "internalType": "uint256",
          "name": "winningProposal_",
          "type": "uint256"
        }
      ],
      "payable": false,
      "stateMutability": "view",
      "type": "function"
    },
    {
      "constant": true,
      "inputs": [],
      "name": "winnerName",
      "outputs": [
        {
          "internalType": "bytes32",
          "name": "winnerName_",
          "type": "bytes32"
        }
      ],
      "payable": false,
      "stateMutability": "view",
      "type": "function"
    },
    {
      "constant": true,
      "inputs": [],
      "name": "allProposalsCount",
      "outputs": [
        {
          "internalType": "uint256",
          "name": "count",
          "type": "uint256"
        }
      ],
      "payable": false,
      "stateMutability": "view",
      "type": "function"
    },
    {
      "constant": false,
      "inputs": [
        {
          "internalType": "address",
          "name": "_chairman",
          "type": "address"
        }
      ],
      "name": "setChairman",
      "outputs": [],
      "payable": false,
      "stateMutability": "nonpayable",
      "type": "function"
    },
    {
      "constant": false,
      "inputs": [],
      "name": "closeBallot",
      "outputs": [],
      "payable": false,
      "stateMutability": "nonpayable",
      "type": "function"
    },
    {
      "constant": true,
      "inputs": [],
      "name": "info",
      "outputs": [
        {
          "internalType": "string",
          "name": "name_",
          "type": "string"
        },
        {
          "internalType": "address",
          "name": "chairman_",
          "type": "address"
        },
        {
          "internalType": "bool",
          "name": "closed_",
          "type": "bool"
        },
        {
          "internalType": "bytes32",
          "name": "winner_",
          "type": "bytes32"
        },
        {
          "internalType": "bytes32[]",
          "name": "proposals_",
          "type": "bytes32[]"
        }
      ],
      "payable": false,
      "stateMutability": "view",
      "type": "function"
    }
  ],
  "bytecode": "0x60806040523480156200001157600080fd5b5060405162000ece38038062000ece833981810160405260408110156200003757600080fd5b81019080805160405193929190846401000000008211156200005857600080fd5b838201915060208201858111156200006f57600080fd5b82518660018202830111640100000000821117156200008d57600080fd5b8083526020830192505050908051906020019080838360005b83811015620000c3578082015181840152602081019050620000a6565b50505050905090810190601f168015620000f15780820380516001836020036101000a031916815260200191505b50604052602001805160405193929190846401000000008211156200011557600080fd5b838201915060208201858111156200012c57600080fd5b82518660208202830111640100000000821117156200014a57600080fd5b8083526020830192505050908051906020019060200280838360005b838110156200018357808201518184015260208101905062000166565b50505050905001604052505050336001806101000a81548173ffffffffffffffffffffffffffffffffffffffff021916908373ffffffffffffffffffffffffffffffffffffffff1602179055506000600160006101000a81548160ff021916908315150217905550816000908051906020019062000203929190620002b2565b5080600490805190602001906200021c92919062000339565b5060008090505b8151811015620002a957600360405180604001604052808484815181106200024757fe5b602002602001015181526020016000815250908060018154018082558091505090600182039060005260206000209060020201600090919290919091506000820151816000015560208201518160010155505050808060010191505062000223565b505050620003db565b828054600181600116156101000203166002900490600052602060002090601f016020900481019282601f10620002f557805160ff191683800117855562000326565b8280016001018555821562000326579182015b828111156200032557825182559160200191906001019062000308565b5b5090506200033591906200038b565b5090565b82805482825590600052602060002090810192821562000378579160200282015b82811115620003775782518255916020019190600101906200035a565b5b509050620003879190620003b3565b5090565b620003b091905b80821115620003ac57600081600090555060010162000392565b5090565b90565b620003d891905b80821115620003d4576000816000905550600101620003ba565b5090565b90565b610ae380620003eb6000396000f3fe608060405234801561001057600080fd5b50600436106100cf5760003560e01c8063609ff1bd1161008c578063a7b4952911610066578063a7b49529146103e9578063a97b8b4d1461042d578063c8e4ef7f14610437578063e2ba53f014610479576100cf565b8063609ff1bd1461034a5780638a9cbb6c14610368578063a3ec138d14610386576100cf565b80630121b93f146100d4578063013cf08b1461010257806306fdde031461014b5780632e4176cf146101ce578063370158ea14610218578063597e1fb514610328575b600080fd5b610100600480360360208110156100ea57600080fd5b8101908080359060200190929190505050610497565b005b61012e6004803603602081101561011857600080fd5b8101908080359060200190929190505050610639565b604051808381526020018281526020019250505060405180910390f35b61015361066a565b6040518080602001828103825283818151815260200191508051906020019080838360005b83811015610193578082015181840152602081019050610178565b50505050905090810190601f1680156101c05780820380516001836020036101000a031916815260200191505b509250505060405180910390f35b6101d6610708565b604051808273ffffffffffffffffffffffffffffffffffffffff1673ffffffffffffffffffffffffffffffffffffffff16815260200191505060405180910390f35b61022061072d565b60405180806020018673ffffffffffffffffffffffffffffffffffffffff1673ffffffffffffffffffffffffffffffffffffffff1681526020018515151515815260200184815260200180602001838103835288818151815260200191508051906020019080838360005b838110156102a657808201518184015260208101905061028b565b50505050905090810190601f1680156102d35780820380516001836020036101000a031916815260200191505b50838103825284818151815260200191508051906020019060200280838360005b8381101561030f5780820151818401526020810190506102f4565b5050505090500197505050505050505060405180910390f35b61033061086d565b604051808215151515815260200191505060405180910390f35b610352610880565b6040518082815260200191505060405180910390f35b6103706108f7565b6040518082815260200191505060405180910390f35b6103c86004803603602081101561039c57600080fd5b81019080803573ffffffffffffffffffffffffffffffffffffffff169060200190929190505050610904565b60405180831515151581526020018281526020019250505060405180910390f35b61042b600480360360208110156103ff57600080fd5b81019080803573ffffffffffffffffffffffffffffffffffffffff169060200190929190505050610935565b005b610435610978565b005b6104636004803603602081101561044d57600080fd5b8101908080359060200190929190505050610a39565b6040518082815260200191505060405180910390f35b610481610a5a565b6040518082815260200191505060405180910390f35b6000600260003373ffffffffffffffffffffffffffffffffffffffff1673ffffffffffffffffffffffffffffffffffffffff1681526020019081526020016000209050600160009054906101000a900460ff161561055d576040517f08c379a000000000000000000000000000000000000000000000000000000000815260040180806020018281038252601d8152602001807f7468652062616c6c6f7420697320616c726561647920636c6f7365642e00000081525060200191505060405180910390fd5b8060000160009054906101000a900460ff16156105e2576040517f08c379a000000000000000000000000000000000000000000000000000000000815260040180806020018281038252600e8152602001807f416c726561647920766f7465642e00000000000000000000000000000000000081525060200191505060405180910390fd5b60018160000160006101000a81548160ff02191690831515021790555081816001018190555060016003838154811061061757fe5b9060005260206000209060020201600101600082825401925050819055505050565b6003818154811061064657fe5b90600052602060002090600202016000915090508060000154908060010154905082565b60008054600181600116156101000203166002900480601f0160208091040260200160405190810160405280929190818152602001828054600181600116156101000203166002900480156107005780601f106106d557610100808354040283529160200191610700565b820191906000526020600020905b8154815290600101906020018083116106e357829003601f168201915b505050505081565b6001809054906101000a900473ffffffffffffffffffffffffffffffffffffffff1681565b60606000806000606060008054600181600116156101000203166002900480601f0160208091040260200160405190810160405280929190818152602001828054600181600116156101000203166002900480156107cc5780601f106107a1576101008083540402835291602001916107cc565b820191906000526020600020905b8154815290600101906020018083116107af57829003601f168201915b505050505094506001809054906101000a900473ffffffffffffffffffffffffffffffffffffffff169350600160009054906101000a900460ff169250610811610a5a565b9150600480548060200260200160405190810160405280929190818152602001828054801561085f57602002820191906000526020600020905b81548152602001906001019080831161084b575b505050505090509091929394565b600160009054906101000a900460ff1681565b6000806000905060008090505b6003805490508110156108f25781600382815481106108a857fe5b90600052602060002090600202016001015411156108e557600381815481106108cd57fe5b90600052602060002090600202016001015491508092505b808060010191505061088d565b505090565b6000600380549050905090565b60026020528060005260406000206000915090508060000160009054906101000a900460ff16908060010154905082565b806001806101000a81548173ffffffffffffffffffffffffffffffffffffffff021916908373ffffffffffffffffffffffffffffffffffffffff16021790555050565b3373ffffffffffffffffffffffffffffffffffffffff166001809054906101000a900473ffffffffffffffffffffffffffffffffffffffff1673ffffffffffffffffffffffffffffffffffffffff1614610a1d576040517f08c379a0000000000000000000000000000000000000000000000000000000008152600401808060200182810382526027815260200180610a886027913960400191505060405180910390fd5b60018060006101000a81548160ff021916908315150217905550565b60048181548110610a4657fe5b906000526020600020016000915090505481565b60006003610a66610880565b81548110610a7057fe5b90600052602060002090600202016000015490509056fe6f6e6c79207468652063686169726d616e2063616e20636c6f7365207468652062616c6c6f742ea265627a7a7231582088c1c6f930b4de42345c930ec623608e935d627b4f5569e027119df2ac4e33d464736f6c63430005100032",
  "source": "// SPDX-License-Identifier: GPL-3.0\r\n\r\npragma solidity >=0.5.0;\r\n\r\n/** \r\n * @title Ballot\r\n * @dev Implements voting process along with vote delegation\r\n */\r\ncontract Ballot {\r\n   \r\n    struct Voter {\r\n        bool voted;  // if true, that person already voted\r\n        uint vote;   // index of the voted proposal\r\n    }\r\n\r\n    struct Proposal {\r\n        // If you can limit the length to a certain number of bytes, \r\n        // always use one of bytes1 to bytes32 because they are much cheaper\r\n        bytes32 name;   // short name (up to 32 bytes)\r\n        uint voteCount; // number of accumulated votes\r\n    }\r\n    \r\n    string public name;\r\n    \r\n    bool public closed;\r\n\r\n    address public chairperson;\r\n\r\n    mapping(address => Voter) public voters;\r\n\r\n    Proposal[] public proposals;\r\n    \r\n    bytes32[] public rawProposals;\r\n\r\n    /** \r\n     * @dev Create a new ballot to choose one of 'proposalNames'.\r\n     * @param proposalNames names of proposals\r\n     */\r\n    constructor(string memory _name, bytes32[] memory proposalNames) public {\r\n        chairperson = msg.sender;\r\n        closed = false;\r\n        name = _name;\r\n        rawProposals = proposalNames;\r\n\r\n        for (uint i = 0; i < proposalNames.length; i++) {\r\n            // 'Proposal({...})' creates a temporary\r\n            // Proposal object and 'proposals.push(...)'\r\n            // appends it to the end of 'proposals'.\r\n            proposals.push(Proposal({\r\n                name: proposalNames[i],\r\n                voteCount: 0\r\n            }));\r\n        }\r\n    }\r\n\r\n    /**\r\n     * @dev Give your vote (including votes delegated to you) to proposal 'proposals[proposal].name'.\r\n     * @param proposal index of proposal in the proposals array\r\n     */\r\n    function vote(uint proposal) public {\r\n        Voter storage sender = voters[msg.sender];\r\n        require(!closed, \"the ballot is already closed.\");\r\n        require(!sender.voted, \"Already voted.\");\r\n        sender.voted = true;\r\n        sender.vote = proposal;\r\n\r\n        // If 'proposal' is out of the range of the array,\r\n        // this will throw automatically and revert all\r\n        // changes.\r\n        proposals[proposal].voteCount += 1;\r\n    }\r\n\r\n    /** \r\n     * @dev Computes the winning proposal taking all previous votes into account.\r\n     * @return winningProposal_ index of winning proposal in the proposals array\r\n     */\r\n    function winningProposal() public view\r\n            returns (uint winningProposal_)\r\n    {\r\n        uint winningVoteCount = 0;\r\n        for (uint p = 0; p < proposals.length; p++) {\r\n            if (proposals[p].voteCount > winningVoteCount) {\r\n                winningVoteCount = proposals[p].voteCount;\r\n                winningProposal_ = p;\r\n            }\r\n        }\r\n    }\r\n\r\n    /** \r\n     * @dev Calls winningProposal() function to get the index of the winner contained in the proposals array and then\r\n     * @return winnerName_ the name of the winner\r\n     */\r\n    function winnerName() public view\r\n            returns (bytes32 winnerName_)\r\n    {\r\n        winnerName_ = proposals[winningProposal()].name;\r\n    }\r\n    \r\n    /**\r\n    *@dev Call this function to list all proposals at once\r\n    */\r\n    function allProposalsCount() public view returns(uint count){\r\n        count = proposals.length;\r\n    }\r\n    \r\n    /**\r\n    *@dev Call this function to set this ballot's Chairman\r\n    */\r\n    function setChairman(address _chairman) external {\r\n        chairperson = _chairman;\r\n    }\r\n    \r\n    /**\r\n    *@dev Call this function to close this ballot\r\n    */\r\n    function closeBallot() public {\r\n        require(chairperson == msg.sender, \"only the chairman can close the ballot.\");\r\n        closed = true;\r\n    }\r\n    \r\n    function info() public view returns (string memory name_, address chairman_, bool closed_, bytes32 winner_, bytes32[] memory proposals_) {\r\n        name_ = name;\r\n        chairman_ = chairperson;\r\n        closed_ = closed;\r\n        winner_ = winnerName();\r\n        proposals_ = rawProposals;\r\n    }\r\n}\r\n",
  "sourcePath": "F:/Dvoter/contracts/Ballot.sol",
  "compiler": {
    "name": "solc",
    "version": "0.5.16+commit.9c3226ce.Emscripten.clang"
  },
  "schemaVersion": "3.3.4",
  "updatedAt": "2021-03-26T10:20:00.137Z",
  "devdoc": {
    "details": "Implements voting process along with vote delegation",
    "methods": {
      "constructor": {
        "details": "Create a new ballot to choose one of 'proposalNames'.",
        "params": {
          "proposalNames": "names of proposals"
        }
      },
      "vote(uint256)": {
        "details": "Give your vote (including votes delegated to you) to proposal 'proposals[proposal].name'.",
        "params": {
          "proposal": "index of proposal in the proposals array"
        }
      },
      "winnerName()": {
        "details": "Calls winningProposal() function to get the index of the winner contained in the proposals array and then",
        "return": "winnerName_ the name of the winner"
      },
      "winningProposal()": {
        "details": "Computes the winning proposal taking all previous votes into account.",
        "return": "winningProposal_ index of winning proposal in the proposals array"
      }
    },
    "title": "Ballot"
  },
  "userdoc": {
    "methods": {
      "allProposalsCount()": {
        "notice": "dev Call this function to list all proposals at once"
      },
      "closeBallot()": {
        "notice": "dev Call this function to close this ballot"
      },
      "setChairman(address)": {
        "notice": "dev Call this function to set this ballot's Chairman"
      }
    }
  }
}